:020000040800F2
:10000000904501205D020008DD17000893160008E6
:10001000D917000825030008611F00080000000030
:100020000000000000000000000000009D0100082A
:100030002903000800000000F90100083D1B00082A
:1000400077020008770200087702000877020008AC
:10005000770200087702000877020008770200089C
:10006000770200087702000877020008770200088C
:10007000770200087702000877020008770200087C
:10008000770200087702000877020008770200086C
:10009000770200087702000877020008770200085C
:1000A000770200087702000877020008770200084C
:1000B000D91B0008F11B00080D1C0008770200087E
:1000C000770200087702000877020008770200082C
:1000D00077020008E11C0008191D0008551D0008E2
:1000E000770200087702000877020008770200080C
:1000F00077020008770200087702000877020008FC
:100100007702000877020008291C0008770200081F
:100110006D1C0008A91C000877020008770200087F
:1001200077020008770200087702000877020008CB
:1001300077020008350500087702000877020008FA
:1001400077020008770200087702000877020008AB
:10015000770200087702000877020008911D000866
:10016000770200087702000877020008770200088B
:10017000770200087702000877020008770200087B
:100180007702000877020008DFF80CD000F0B8F81A
:100190000048004795240008904501202C4B196821
:1001A0000868B0E8F04F80F30988BFF36F8F4FF015
:1001B000000080F3118870470000000008480068C4
:1001C000006880F308884FF0000080F3148862B65E
:1001D00061B6BFF34F8FBFF36F8F00DF00BF00BF6B
:1001E00008ED00E0DFF80C00016841F470010160E7
:1001F000704700BF88ED00E0EFF30980BFF36F8F19
:10020000134B1A681EF0100F08BF20ED108A20E96A
:10021000F04F106009B44FF0500080F31188BFF325
:100220004F8FBFF36F8F06F011F84FF0000080F38F
:10023000118809BC19680868B0E8F04F1EF0100F6B
:1002400008BFB0EC108A80F30988BFF36F8F704746
:1002500024000020EFF30580704700000648804727
:1002600006480047FEE7FEE7FEE7FEE7FEE7FEE79B
:10027000FEE7FEE7FEE7FEE7711B000889010008C4
:1002800010B5431A934209D28318881803E010F876
:10029000011D03F8011D521EF9D210BD40EA0103F1
:1002A0009B0703D009E008C9121F08C0042AFAD22C
:1002B00003E011F8013B00F8013B521EF9D210BDDA
:1002C000D2B201E000F8012B491EFBD27047002298
:1002D000F6E710B513460A4604461946FFF7F0FF45
:1002E000204610BD30B504460020034600E05B1CEC
:1002F000934203D2E05CCD5C401BF8D030BD0000DF
:10030000064C074D06E0E06840F0010394E8070062
:1003100098471034AC42F6D3FFF73AFFFC7300085D
:100320001C74000800BFFEE7704708B53D208DF83B
:10033000000000208DF801008DF8020001208DF8EA
:100340000300684601F04CFA08BD0000014948610D
:10035000704700000090024029B1064AD26902436A
:10036000044BDA6104E0034AD2698243014BDA614B
:10037000704700000090024030B10749896941F0A0
:100380000201054A916105E00349896921F00201F2
:10039000014A9161704700000090024070B50C4620
:1003A00013460021124D286000BF18E000EB4112F7
:1003B0004FF00045156044F2F4555560C1EBC1158E
:1003C00005EB450504EB850595605D1E8D4204D95E
:1003D00000EB41152035D56000E0D060491C994202
:1003E000E4D3044DE860044D044E356070BD000058
:1003F000D80000200090024084410120DC00002051
:1004000030B10749896941F40051054A916105E01D
:100410000349896921F40051014A91617047000044
:100420000090024030B50C46134600210F4D286065
:1004300000BF15E000EB41124FF480151560C1EBD1
:10044000C11505EB450504EB850595605D1E8D42E4
:1004500004D900EB41152035D56000E0D060491C7F
:100460009942E7D3024D286130BD0000D40000203E
:100470000090024002680A430260704710B50121F3
:10048000480601F003FA00214FF0007001F0FEF978
:1004900010BD01B581B0002000900198009002E0ED
:1004A0000098401E009000980028F9D10CBD000073
:1004B00008B5002000900848806940F48010064983
:1004C00088610846806900904FF6FF70FFF7E1FFF2
:1004D00001490098886108BD009002400148006809
:1004E00080687047D400002001460868C0F30D40C2
:1004F000704700B502460023106800F0004058B96C
:10050000106800F4004038B9106800F4807018B129
:100510001046FFF7E9FF0346184600BD00200449D6
:10052000096801F0010109B1012000E000207047D5
:100530000090024008B54020FFF708FF4FF48030DC
:10054000FFF704FF69460748006805F02BFD009897
:1005500038B14FF0805004490860BFF34F8FBFF3AC
:100560006F8F08BDD000002004ED00E010B586B00C
:1005700003A800F0B5FA039808B906B010BD002131
:10058000039804F045FB0446DCB1DDE90321A069D2
:10059000FFF776FEA06901F013FE01280DD18DF85A
:1005A00004000294002101A806F064FB18B920465B
:1005B00005F044FA00E000BF06E0204605F03EFAF0
:1005C00002E009A001F0CEFC4FF000400599086060
:1005D0000C48406900F0800020B180200949486142
:1005E0000020886000BFC8E7CDF8BFA8BDD3CAD53A
:1005F000B7D6C5E4BBBAB3E5C7F8CAA7B0DC0D0AE5
:1006000000000000009002402DE9F04188B004464F
:100610000F464FF00008002500200790B94E0290C9
:1006200001200190B848056925F01C0503A801F0D8
:100630005DF9049EB548864205D3B548864202D28C
:1006400045F008051AE0B248864205D3AD48864217
:1006500002D245F00C0511E0AA48864203D3AD480A
:10066000864200D20AE0AB48864205D3AA488642B9
:1006700002D245F0040501E045F01005A2480561ED
:100680004FF400420021384600F020FB10B9002052
:1006900001906AE0A148FFF7FCFE2068002850D0D6
:1006A00000BF0298401C02900121384600F0E2F998
:1006B00000F0040018B99A4902988842F1D3984989
:1006C0000298884202D1002001904EE00020029062
:1006D0004FF480520021384600F0F8FA08B90020A3
:1006E000019000BF0298401C02900121384600F0A2
:1006F000C1F900F0200018B9894902988842F1D365
:1007000087490298884202D1002001902DE0002004
:1007100002901F21384600F0ADF9804608F0100025
:1007200018B14FF40060206201E00020206208F060
:10073000040010B10020606116E04FF48040606159
:1007400012E0206AC0F3CF006169C1F34F0140EAB3
:1007500001020021384600F0B9FA08B900200190E2
:100760006FF07F40FFF795FE00BF019820B94FF46E
:1007700000602062C0006061634805686948054008
:10078000D4E901010843E16808432169084361692C
:100790000843A1690843E1690843216A0843616A83
:1007A0000843A16A0843E16A0843216B0843616B6F
:1007B000084305435448056005684FF6FF70FFF78E
:1007C00068FE51480560D4E90E010843216C0843D6
:1007D000616C0843A16C0843E16C0843216D084338
:1007E000616D084348494860084645684FF6FF7008
:1007F000FFF74FFE444845604349A06D8860E06DB7
:10080000C860084685694FF641700540B4F860102D
:10081000606E40EA0140A16E0843E16E0843216F1B
:100820000843616F084305433748856185694FF682
:10083000FF70FFF72EFE34488561D4E91E0108439E
:100840003149C8610846C5694FF6FF70FFF721FEC0
:100850002D48C5613448856934480540D4E92001F4
:100860000843D4F888100843D4F88C100843D4F80F
:1008700090100843D4F894100843D4F89810084313
:10088000D4F89C100843D4F8A01008430543264828
:10089000856185694FF6FF70FFF7FBFD2248856192
:1008A000D4E929010843D4F8AC100843D4F8B010B7
:1008B0000843D4F8B41040EA8100D4F8B8100843D3
:1008C00040F4000018490860084605684FF6FF70BC
:1008D000FFF7DFFD14480560006840F08000124912
:1008E0000860084605684FF6FF70FFF7D2FD0E4816
:1008F00005600198012802D108B0BDE8F081002010
:10090000FAE700000087930300800240002D3101C8
:10091000C00E160200E1F50580D1F008FFFF0F00C0
:10092000FFFF04000F8120FF00900240233FDEF80C
:1009300010B50B794C7943EA0422094B03441A643D
:10094000CB781B068C7843EA04434C7843EA0423B3
:100950000C7843EA0402024B03445A6410BD0000C1
:100960000080024010B5B0B001214FF0606000F08F
:100970007DFFFFF783FD00F001F900BFFFF7CEFD1B
:100980000128FBD001A800F013F9012001900020FC
:1009900008904FF400700B9000200C900F90129074
:1009A0001490159016900A9021904FF000702290AC
:1009B0000011249000202690279004202990C00543
:1009C0002A9040122B9080012C9040122D904000D4
:1009D0002F90002101A8FFF717FEC4B2012C03D10C
:1009E00001210348FFF7B8FC204630B010BD0000DD
:1009F0004000010038B504460020009034B10C4896
:100A0000006840F004000A49086005E008480068F2
:100A100020F00400064908600548006800904FF681
:100A2000FF70FFF736FD02490098086038BD0000EE
:100A30000080024038B504460020009034B10C48D4
:100A4000006840F008000A49086005E008480068AE
:100A500020F00800064908600548006800904FF63D
:100A6000FF70FFF716FD02490098086038BD0000CE
:100A70000080024018B502460B460021002000907D
:100A80001548016901F01C014FF4784000EAC220CA
:100A900001434FF4F86000EA8310014321F00201A2
:100AA00041F001010C48016100BF0098401C00901A
:100AB0000948016901F0010018B1084C0098A042F2
:100AC000F3D3064C0098A04201D1002018BD024883
:100AD000406980B2FAE7000000800240FFFF040096
:100AE0000EB500210091019102912249096809681F
:100AF00001F0004181B1002100911F49496901F0D5
:100B0000800121B180211C4A5161002191609DE842
:100B10000E0080E80E000EBD16490968096801F450
:100B20000041B9B913490968096801F4807189B1B4
:100B300010490968096801F4007159B10D49096843
:100B40000968C1F30D41091F00910A4909688968C4
:100B5000019101E0002100910649096802910549CF
:100B60000968C968034A11609DE80E0080E80E001C
:100B700000BFD0E7D8000020009002400348006882
:100B800040F00100014908607047000000900240F9
:100B900010B50120FFF74EFF0120FFF72BFFFFF7F5
:100BA00087FC0120FFF72CFC0120FFF7E5FB10BDBF
:100BB00001210160002141608160C16001614FF449
:100BC0008041416100218161C1614FF40061016296
:100BD000002141628162C162016341638163C1633B
:100BE000402101642021416400218164C1640165C8
:100BF00041658165C165016680214166002181668C
:100C0000C166016741678167C1674FF08061C0F8C5
:100C100080104910C0F884100021C0F888104FF4EB
:100C20000011C0F88C100021C0F89010C0F894108A
:100C3000C0F89810C0F89C10C0F8A0104FF00071D8
:100C4000C0F8A4104912C0F8A8108901C0F8AC106F
:100C50004912C0F8B0100021C0F8B410C0F8B810A4
:100C600070470000014617480068006800F0004027
:100C700008B100207047C1F30C00124A126850609E
:100C800010480068006840F040500E4A126810603A
:100C90000C480068006840F000400A4A1268106082
:100CA0000948406900F0040020B10420064A506160
:100CB0000020506003480068C068024A10600120AC
:100CC000D8E70000D40000200090024038B5034669
:100CD0000C460021002000901448016901F01C011D
:100CE0004FF4784000EAC32001434FF4F86000EA73
:100CF0008410014341F0020141F001010B484261BF
:100D0000016100BF0098401C00900848016901F093
:100D1000010018B1064D0098A842F3D3044D009885
:100D2000A84201D1002038BD0120FCE7008002402C
:100D3000FFFF040010B5C0210148FFF7C8FA10BD3D
:100D4000D00101202DE9F04105460F46B7F5FA7FA5
:100D500001D94FF4FA7705F12A00394603F058FF1C
:100D6000044634B105F12A00E061A06900F12A06C9
:100D700000E000263046BDE8F08100002DE9FC4788
:100D800004460D4616461F46DDF828904FF0000831
:100D9000002208210F2005F052FD3F490860084657
:100DA0000068002872D005F089FB012863D1E07843
:100DB0000006A17840EA0140617840EA01202178EC
:100DC000084336490860E8780006A97840EA0140FF
:100DD000697840EA01202978084330494860F07872
:100DE0000006B17840EA0140717840EA012031788C
:100DF00008432A498860F8780006B97840EA01403B
:100E0000797840EA0120397808432449C8600846C7
:100E10000068496808402149496860EA01001F49A3
:100E2000086114221E48FFF72BFA1E4800680128AB
:100E300003D100201C49486103E0184800681A49A2
:100E400048611948D9F800100160B9F80410818090
:100E500004F0B0FC8046B8F1010F19D11348042109
:100E600000234FF42072CDE9001011A1124806F0C2
:100E70005BF880460CE000BF00BF0748006804F044
:100E8000CDFD00200449086002E0FFE700BF00BF7D
:100E90004046BDE8FC87000080000020B40201202D
:100EA000C8020120CC000020AC0000208C000020F3
:100EB00049502D7461736B000D31000810B500248A
:100EC0000021064805F0D6FE012803D00120044980
:100ED000086002E000200249086010BDE0730008CD
:100EE0008800002070B5054600212A2003F090FEFE
:100EF00004463CB16561204604F0B6F90121204664
:100F000005F026FB70BD70B50446204603F022FFB5
:100F1000054604F093FD70BD70B50646344614B91D
:100F20006FF0150515E0E06A48B1E06A006830B17D
:100F3000E16A0868082105F0F2F9002509E0606817
:100F400028B14021606805F0EAF9002501E06FF062
:100F50001505284670BD2DE9FE4305460E46904610
:100F60002C4600270CB1601C10B96FF0150734E057
:100F7000A06908B1012000E0002020B100BF00BF3F
:100F80006FF0150729E008208DF80400029536B1AE
:100F9000B0780002718840EA2120A08401E000209E
:100FA000A0844FF0FF3101A805F064FE20B900BF16
:100FB00000BF6FF08B0710E04FF0FF300090002370
:100FC00001221021606805F0F3F9A06908B1012041
:100FD00000E0002008B96FF015073846BDE8FE8331
:100FE0007CB5054609208DF8000001950DB1681CFF
:100FF00008B900240AE00021684605F03BFE20B94C
:1010000000BF00BF4FF0FF3400E0012420467CBD4C
:1010100002468A4201D8104670470846FCE702465D
:101020008A4201D8104670470846FCE72DE9FF4F79
:1010300087B0884691461F46DDF850A04FF0000B60
:10104000079C002006900590029001221121204665
:1010500003F04DFD20B96FF015000BB0BDE8F08F27
:10106000D4F838B03AE00598B0B9E069069006982F
:1010700048B900200090002301224021606805F05B
:1010800097F902902DE007F0100000B129E001204F
:10109000059003A805F08EF8069800900023012221
:1010A0004121606805F084F90290029800F0400048
:1010B00040B1029800F0010018B10121606805F00C
:1010C0002EF90EE0D4F838B0BBF1000F00D008E0E4
:1010D00006A903A805F0ECFE00B102E0BBF1000F89
:1010E000C1D000BFBBF1000F2ED004F0E3FB606C59
:1010F000C56807F0040010B9284603F0F3FE04F0B9
:10110000EBFBEE69BAF1000F05D0288CAAF80200BB
:101110006869CAF8040007F0010080B94E4500DD97
:101120004E46A86900F12A0132464046FFF7A8F86A
:1011300007F0040088B9284604F080FC0DE0A86997
:101140002A30C8F8000008E0029800F0400010B112
:101150006FF0030601E06FF00A0630467DE70246B5
:101160005018401EB0FBF1F04843704770B505467B
:101170002E4696F82700062802D06FF0150407E0E7
:10118000706F20B1706F03F0C8FF044600E00024C8
:10119000204670BD2DE9F04F85B080468946154642
:1011A0001E46DDF838A0304803C8CDE903014FF0F2
:1011B000000B4746B5F5B86F51D8B86908B10120A2
:1011C00000E0002030B9002211464046FFF7C3FE80
:1011D000002844D1386A009006F0100008B10020C1
:1011E000009006F00100C8B901A804F0E3FF05F182
:1011F0002A00009903F00CFD04469CB1A16901F19D
:101200002A002A464946FFF73BF8694601A805F03F
:101210004FFE012806D10020009003E0484603F06D
:1012200099FD0446DCB1E561BAF8020020843889F2
:101230006084DAF80400606197F82600A16988717B
:10124000049403A8009905F015FD012801D1AB46CF
:1012500005E006F0010010B9204604F0EFFB584607
:1012600005B0BDE8F08F0000F07300082DE9F84FDD
:10127000804616461D46DDF828B06FF0150A444634
:10128000112E72D2DFE806F0090E283C414271713E
:101290007171719FB363C7F31E002868E0614FF05E
:1012A000000A08E12868206294F82700112806D176
:1012B000206AB0F5FA7F02D94FF4FA7020624FF03D
:1012C000000AF8E094F82700112800D0F3E029681C
:1012D000E1644FF0000AEEE0A946B9F1000506D13D
:1012E00094F8260000F0FD0084F8260005E094F84C
:1012F000260040F0020084F826004FF0000ADAE0F1
:101300002868A0624FF0000AD5E000BF94F82700DB
:10131000062802D000BF00BFCDE0042E01D1A06F8F
:1013200018B9052E04D1606F10B100BF00BFC2E034
:101330002F68042E07D14C20015B3846FFF70FFFC2
:101340000746276700E0E7664FF0000AB3E094F82D
:101350002700062802D000BF00BFACE0A06F08B98C
:10136000606F18B100BF00BFA5E0A1E02F460420C8
:101370003B460246002100904046FFF777FF0420DD
:1013800007F108030522002100904046FFF76EFF99
:101390000121C4F8D410C4F8D81094F8DC0000F08F
:1013A000010068B14C20005BD4F8D4104143C4F86C
:1013B000E0104C20005BD4F8D8104143C4F8E4108E
:1013C0004FF0000A77E094F82700062800D072E07A
:1013D000286828B1206C20F008000830206403E061
:1013E000206C20F0080121644FF0000A63E094F8BB
:1013F0002700062800D05EE0286828B1206C20F085
:1014000010001030206403E0206C20F010012164F3
:101410004FF0000A4FE094F82700062800D04AE079
:10142000286838B1D4F8DC0020F00200801CC4F831
:10143000DC0005E0D4F8DC0020F00201C4F8DC1088
:1014400094F8DC00C0F3400068B95320005D052823
:1014500009DB204600F086F828B10121482001531D
:10146000052005F03DFC4FF0000A24E0FFE794F86A
:101470002700062800D01EE0286830B1206C20F438
:10148000802000F58020206403E0206C20F480217F
:101490002164206C20F4807000F5807020640121AC
:1014A00048200153052005F01BFC4FF0000A02E024
:1014B0006FF06C0A00BF00BF5046BDE8F88F2DE901
:1014C000F8438046894615466B462A4649464046BB
:1014D00001F0BBFB10B94FF0FF3740E0009803F07C
:1014E0001FFB044614B94FF0FF3437E004F00AFF45
:1014F000061E04D1204604F0FFF9741E2EE020469B
:101500000099FEF7E4FE6660112D05D104F1380064
:1015100004F01AF90521E16404F1080004F021F94E
:10152000646141F28830E0612062022084F8260084
:1015300084F82750062D11D14FF4C8714A20015369
:101540004C2001534900E16649104800FFF707FEAF
:1015500020670121C4F8D410C4F8D81027463846B3
:10156000BDE8F88370B505462E4696F82700062894
:1015700002D06FF0150407E0B06F20B1B06F03F038
:10158000CCFD044600E00024204670BD70B5064640
:10159000344694F82700062802D06FF0150507E0BE
:1015A000A06F20B1A06F03F0C8FD054600E0256FD5
:1015B000284670BDF0B50A4600210023002400BF74
:1015C0003DE0012505FA01F3156805EA03049C4294
:1015D00034D105684F000326BE40B5430560157938
:1015E0004E00B5400668354305601579012D02D0DF
:1015F0001579022D16D185684F000326BE40B543EC
:10160000856055794E00B5408668354385604568EC
:1016100001268E40B5434560456896798E40B6B246
:1016200035434560C5684F000326BE40B543C560DD
:10163000D5794E00B540C6683543C560491C1029B0
:10164000BFD3F0BDF0B5002300244D07ED0E02FA24
:1016500005F3CE1000F1200555F826504E07F70E81
:101660000F26BE40B543CF1000F1200646F82750A4
:10167000CE1000F1200555F8265045EA0304CE109F
:1016800000F1200545F82640F0BD418370470183F5
:10169000704700BFFEE700004CF6CC4001490860EF
:1016A00070470000003000404AF6AA200149086057
:1016B000704700000030004001494860704700005A
:1016C0000030004001498860704700000030004051
:1016D0000149086070470000003000401CB501213E
:1016E0004D2000F0C3F80121880300F0EFF801203D
:1016F00000F094F98620009003208DF80500022068
:101700008DF8040000208DF806008DF8070069466A
:101710002D48FFF74FFF0B2201212B48FFF792FFC7
:101720000B2202212848FFF78DFF0B2207212648B4
:10173000FFF788FF3220009069462448FFF73AFF00
:101740000B2201212148FFF77DFF0B2204211F48B6
:10175000FFF778FF0B2205211C48FFF773FF4FF4BA
:10176000D040009069461A48FFF724FF0B2211462B
:101770001748FFF767FF0B220D211548FFF762FF9F
:101780000B220E211248FFF75DFF08200090032076
:101790008DF8050001208DF8040000208DF806006A
:1017A0008DF8070069460B48FFF704FF0821094838
:1017B000FFF76BFF322000F05FFC08210548FFF7C0
:1017C00066FFFEF7B2FD1CBD0000024000080240AB
:1017D00000180240000C024000BFFEE77047000006
:1017E00070B5002100230F22C4781CB3174C246865
:1017F00004F4E064C4F5E064C4F30721C1F1040417
:10180000E3B20A4144789C40E1B284781440214319
:101810000C07210E0E4C05786155047804F01F0565
:101820000124AC4005786D11AD0005F1E025C5F847
:10183000004109E0047804F01F050124AC40054D87
:101840000678761145F8264070BD00000CED00E0EA
:1018500000E400E080E100E002490143024A116037
:10186000704700000000FA050CED00E029B1064ABF
:1018700012680243044B1A6004E0034A1268824370
:10188000014B1A60704700003038024029B1064A07
:1018900012680243044B1A6004E0034A1268824350
:1018A000014B1A60704700001038024029B1064A07
:1018B00012680243044B1A6004E0034A1268824330
:1018C000014B1A60704700003438024029B1064AC3
:1018D00012680243044B1A6004E0034A1268824310
:1018E000014B1A607047000044380240F0B50021F7
:1018F00000220024022500260223324F3F6807F011
:101900000C0121B1042905D0082937D105E02E4F5B
:10191000076036E02D4F076033E02A4F3F1F3F68D6
:10192000C7F38056274F3F1F3F6807F03F036EB154
:10193000264FB7FBF3F7DFF88CC0ACF1040CDCF8F2
:1019400000C0CCF3881C07FB0CF40CE01E4FB7FB67
:10195000F3F7DFF870C0ACF1040CDCF800C0CCF396
:10196000881C07FB0CF4174F3F1F3F68C7F3014764
:101970007F1C7D00B4FBF5F7076002E0124F0760A3
:1019800000BF00BF0F4F3F6807F0F0010909104F7B
:101990007A5C0768D74047600A4F3F6807F4E05118
:1019A000890A0B4F7A5C4768D7408760054F3F68CC
:1019B00007F46041490B064F7A5C4768D740C7601F
:1019C000F0BD0000083802400024F40040787D019A
:1019D0001400002030B10749096841F00401054AAC
:1019E000116005E00349096821F00401014A116012
:1019F000704700000008065001460020034A1268A4
:101A00000A400AB1012000E0002070470408065097
:101A10000148006870470000080806500149086046
:101A200070470000DC0027420CB5002001900090B8
:101A30003448006840F480303249086000BF3148C3
:101A4000006800F4003000900198401C019000985C
:101A500018B90198B0F5A04FF1D12A48006800F4F8
:101A6000003010B10120009001E0002000900098AB
:101A7000012846D123484030006840F08050214979
:101A8000403108602048006840F440401E4908602A
:101A90001C48083000681B49083108600846006887
:101AA00040F4004008600846006840F4A050086018
:101AB0001648091F0860081F006840F08070091F61
:101AC000086000BF0F48006800F000700028F9D0DF
:101AD00040F205700E4908600A480830006820F09E
:101AE00003000849083108600846006840F0020019
:101AF000086000BF03480830006800F00C000828A8
:101B0000F8D10CBD00380240007000401954400765
:101B1000003C0240042808D14FF0E021096941F05F
:101B200004014FF0E022116107E04FF0E021096964
:101B300021F004014FF0E0221161704710B500BFA1
:101B4000502080F31188BFF34F8FBFF36F8F00BF1A
:101B500005F026FA18B14FF080500449086000BF24
:101B6000002080F3118800BF10BD000004ED00E0EC
:101B700010B51548006840F4700013490860134818
:101B8000006840F001001149086000200F49083149
:101B900008600E4800680E4908400C4908600D486E
:101BA000091D0860081F006820F48020091F0860D4
:101BB000002006490C310860FFF736FF4FF0006047
:101BC00001498039086010BD88ED00E0003802400E
:101BD000FFFFF6FE1030002410B50121880700F049
:101BE00034F818B10121880700F02CF810BD00006E
:101BF00010B50121044800F028F818B1012102486D
:101C000000F020F810BD00000004004010B50121D4
:101C1000044800F01AF818B10121024800F012F847
:101C200010BD00000008004010B50121044800F07C
:101C30000CF818B10121024800F004F810BD0000B2
:101C4000000C0040CA430282704730B502460020B3
:101C500000230024158A05EA0103958905EA010499
:101C600013B10CB1012000E0002030BD10B500BF61
:101C700040F225510B4800F0DAF820B140F225512E
:101C8000084800F0ACF840F22441064800F0CFF8D4
:101C900030B104480088C4B20248001D0088C4B2B4
:101CA00010BD0000004C004010B500BF40F22551AF
:101CB0000A4800F0BCF820B140F22551074800F076
:101CC0008EF840F22441054800F0B1F828B10348ED
:101CD0000088C4B201488088C4B210BD00500040E2
:101CE00010B500BF40F225510A4800F0A0F820B11D
:101CF00040F22551074800F072F840F224410548AF
:101D000000F095F828B103480088C4B201488088E3
:101D1000C4B210BD0010014010B500BF40F2255103
:101D20000B4800F084F820B140F22551084800F03B
:101D300056F840F22441064800F079F830B10448E2
:101D40000088C4B20248001D0088C4B210BD000063
:101D50000044004010B500BF40F225510B4800F090
:101D600066F820B140F22551084800F038F840F2FA
:101D70002441064800F05BF830B104480088C4B242
:101D80000248001D0088C4B210BD00000048004099
:101D900010B500BF40F225510B4800F048F820B1C3
:101DA00040F22551084800F01AF840F22441064854
:101DB00000F03DF830B104480088C4B20248001D6C
:101DC0000088C4B210BD00000014014001F400728C
:101DD000B2F5007F00D100BFCA430280704710B542
:101DE0000022002340F66A14A14200D100BF0A126B
:101DF00001249440A3B2DC43048010BD21B1828948
:101E000042F40052828104E082894DF6FF731A4049
:101E10008281704702460020B1F5007F00D100BFEB
:101E200013880B400BB1012000E00020704770B513
:101E30000246002400230025002040F66A16B14225
:101E400000D100BFC1F3421501F01F03012606FABD
:101E500003F3012D02D19689334006E0022D02D111
:101E6000168A334001E0968A33400C12012606FAA6
:101E700004F41688344013B10CB1012000E00020B6
:101E800070BD00002DE9FF4705460E460024A1461F
:101E900000BFA046B08900B100BF2C8A24F4405492
:101EA000F08804432C82AC8941F20C608443B088F2
:101EB00031890843718908430443AC81AC8A24F416
:101EC0004074B0890443AC826846FFF70FFD204898
:101ED000854202D01F48854202D1DDF80C9001E016
:101EE000DDF80890A88900F4004040B109EBC90072
:101EF00000EB091031684900B0FBF1F707E009EB8E
:101F0000C90000EB091031688900B0FBF1F76420CB
:101F1000B7FBF0F004012009642101FB1078A889C7
:101F200000F4004040B1322000EBC800B0FBF1F0FB
:101F300000F00700044308E0322000EB08106421A1
:101F4000B0FBF1F000F00F0004432C81BDE8FF87E7
:101F50000010014000140140C1F308028280704764
:101F600000BFFEE70FB4054B10B503A9044A029861
:101F700000F017F810BC5DF814FB000035220008D3
:101F80000401002002E008C8121F08C1002AFAD18B
:101F900070477047002001E001C1121F002AFBD1E9
:101FA00070472DE9F84F9946924688460546002726
:101FB00006E025280AD051464A4690476D1C7F1CF2
:101FC00028780028F5D13846BDE8F88F002315F8A9
:101FD000011F18462E2915D115F8011F04232A299F
:101FE0000DD06FF02F022978A1F13004092C09D807
:101FF00000EB800002EB400008446D1CF3E758F84A
:10200000040B6D1C2A78002ADDD0632A07D0732ABE
:102010000FD0104651464A4690477F1C2AE018F8D8
:10202000042B8DF8002000218DF801106E4601214F
:1020300003E058F8046B4FF0FF315A074FF00004EB
:1020400001D409E0641C84420BDA8C42FADB325D75
:10205000002AF7D105E0641C8C42FCDB305D0028CF
:10206000F9D1274404E016F8010B51464A4690473F
:10207000641EF8D26D1CA3E7002107E046F660510C
:1020800000BF0A1EA1F1010399B2FAD1021EA0F10C
:10209000010398B2F2D170472DE9F04104460F4692
:1020A0002068401C20B11A4920680969884206D17D
:1020B0001848016839608088B880012524E01648F6
:1020C000406908B902251FE00025114920684968C8
:1020D0000840114949690E4A52681140884207D0A8
:1020E0000B48806810B10A48866802E0266800E064
:1020F00026684DB90EB9022506E03946304600F093
:102100004BFB054605B926602846BDE8F081000076
:10211000B4020120D8730008AC0000202DE9F04182
:1021200005464FF0000805F10E04D4F80E60A769CB
:102130002148406900283BD0E088B0F5807F03D07B
:10214000B0F5007F32D12BE01B484069B84226D160
:10215000314604F1080003F0ABF84FF40070E08062
:10216000B7420BD115480168C5F806108088688110
:102170000020C4F81200E082A06105E0A068C4F865
:102180001200A089E082A6610B480168A1608088E6
:10219000A08109484069C4F80E004FF0020806E02B
:1021A000314604F1080003F083F800E000BF00BFEF
:1021B0004046BDE8F0810000AC000020D873000864
:1021C00070B505462E46062231460E48FEF78AF8BF
:1021D00008B9012408E0062231460B48FEF782F8D0
:1021E00008B9012400E00024012C08D1B0890102C3
:1021F00041EA202188B2B0F5C06F00D80024204603
:1022000070BD0000AC000020D873000800BF0DE0D6
:102210004FF0FF31002002F021FE01E0FEF7A6F9A9
:1022200003480068FEF765F90028F7D1F0E70000E1
:10223000D800002070B504460D4640210748FFF73E
:10224000C5FDE1B20548FFF787FE00BF4021034806
:10225000FFF7E0FD0028F9D0204670BD00100140D6
:1022600010B500BF0120FFF7C7FB0028FAD0FFF729
:10227000CFFB10BD2DE9F04704460E4617469846A1
:10228000656F4DB90121204601F088FD05461DB955
:102290004FF0FF30BDE8F08743463A4631462846C6
:1022A00002F049FE824656BB4020005DC0F3C010DC
:1022B000C0B9606F02F0C6FE8146606E484510D31B
:1022C000206C20F0800080302064206C20F480702E
:1022D00000F580702064012148200153052004F09E
:1022E000FFFC00BF206840F00100206094F830003F
:1022F00000F0010018B1206840F480702060504662
:10230000C8E770B5044625698D4201D1934202D2D7
:102310004FF0FF3003E02569AE182661002070BD44
:102320002DE9F04705460E469046994605F14004D2
:10233000A068002801DD00272CE06068B0420DD2C3
:102340001648006848B1B5F85800502801D001205F
:1023500000E0002008B100BF00BF66680F480068B9
:1023600048B1B5F85800502801D0012000E0002005
:1023700008B100BF00BF686B2060A660C4F80C8085
:102380000020606104F1100003F091FD686B30449F
:10239000686337463846BDE8F0870000A800002093
:1023A00070B505460C4645F25550FFF791F92846A1
:1023B000FFF782F92046FFF785F9FFF775F9FFF778
:1023C0006BF970BD10B5FFF76FF910BD08B54FF48C
:1023D000A060FFF741FA25208DF8000000208DF85D
:1023E00001008DF8020001208DF803006846FFF718
:1023F000F7F908BD10B501214020FFF757FA012079
:10240000FFF7E8FA10BD000010B586B004460121C0
:102410000846FFF72BFA01211020FFF757FA4FF477
:10242000C060049002208DF814008DF81500002083
:102430008DF8160001208DF8170004A91348FFF746
:10244000B9F8072209211148FFF7FCF807220A21F1
:102450000E48FFF7F7F800940020ADF80400ADF83F
:102460000600ADF80800ADF80C000C20ADF80A002D
:1024700069460748FFF706FD01210548FFF7BEFC46
:1024800040210348FFF7A2FC06B010BD0000024047
:10249000001001401CB56420FFF7EEFD3B4803F03F
:1024A00097F9FFF793FF40F271210620FFF778FFBD
:1024B0004FF46120FFF7A8FF35A0FFF753FDFFF7AA
:1024C00099FFFFF70BF9FEF74DFA34490020FEF7AC
:1024D0002FFA052232493348FDF7A4FF052232497D
:1024E0003248FDF75BFF002408E02E4901EB441061
:1024F0004FF48001FDF7BEFF601CC4B2052CF4DB75
:10250000FEF746FB2548801E40782949086023488D
:1025100000F112031A1F111F0090801DFEF72EFC00
:102520002448042100234FF4C072CDE9001022A1F9
:10253000254804F0F9FC03F04FFE26E003F0BAF959
:1025400022A0FFF70FFD012080F3138800BF00BF1A
:1025500000BF00BF00BF00BFBFF34F8F00BF00BF71
:1025600000BF1F48006800F4E0601E490843001DDA
:102570001B49086000BF00BF00BFBFF34F8F00BF03
:1025800000BF00BF00E000BFFDE7D7E770730008A1
:1025900073746172742E2E2E0D0A0000E600002066
:1025A000C02301205C050120FC050120BC040120A2
:1025B000CC000020D0000020657468436172645232
:1025C000785461736B0000000D2200084F53C3BBA9
:1025D000C6F4B6AFBBF2B1C0C1CB0D0A000000001B
:1025E0000CED00E00000FA052DE9F04105460E462D
:1025F0001F48076800201F49096881F851001D48DD
:102600000068001D02F06EFC50B91A48006890F88E
:102610002C10012088401849096881431648016040
:10262000681C38B936B113480168091D134803F016
:10263000B5F81AE07C190F4800684460BC4207D224
:102640000C480168091D0E48006803F08DF80CE085
:1026500008480168091D0B48006803F085F80A481E
:102660000068844201D208480460BDE8F08100009F
:1026700038000020240000203C000020BC01002085
:102680002C000020280000205400002010B5044633
:1026900003F010F923480068401C224908602248D2
:1026A000006840B9204804600846006801280DD140
:1026B00000F0A6FE0AE01D48006838B91A48006814
:1026C000C06AE16A884201D8174804601848006867
:1026D000401C1749086094F82C10012088401549C7
:1026E0000968084313490860E16A01EB8101124A55
:1026F00002EB8100211D03F051F803F0EDF80B48C7
:10270000006868B108480068C06AE16A884207D278
:102710004FF0805009490860BFF34F8FBFF36F8FB0
:1027200010BD0000340000202400002040000020E4
:10273000500000203C0000200801002004ED00E0D3
:10274000F0B503460C461546012203F10E01086957
:10275000CE884FF60F773E400EB1002215E00E787E
:10276000452E02D30E784F2E01D900220DE0084EDF
:102770007669864209D0461C3EB1064E36698642CD
:1027800003D0034E766906B100221046F0BD00006A
:10279000AC000020B402012030B502460B460020F8
:1027A00000211AE001EB41040E4D55F824409442FB
:1027B00012D101EB410405EB8404E47A0CB9022048
:1027C00009E001EB4104074D05EB840465681D60D9
:1027D00024899C80012002E0491C1029E2DB00BF13
:1027E00030BD0000D00101204FF47A701049097803
:1027F00001F0010129B10E49C968814201D20C4999
:1028000008690C49096801290AD10B49097801F0C6
:10281000010129B10849C968814201D20649C86845
:102820000649C968814201D20449C868704700005E
:10283000DC020120CC000020F00201200403012072
:1028400070B5184800F00CFD10B1022004F048FAF1
:1028500015480068012806D1144800F001FD10B1A8
:10286000042004F03DFA1248006802F04FFB08B95A
:10287000012400E000240F4800F0F2FC05460E4859
:10288000006808B104B1012555B1204604F07EFA74
:1028900006463146074800F007FD0020064908605B
:1028A00070BD0000DC020120CC000020F0020120FD
:1028B0008000002004030120900000202DE9F04357
:1028C00002460C46D4F8188008F1220C0CF11401D1
:1028D0009CF80C600527C7EB261601EB860502F174
:1028E000DC03D4E906673E44AE4201D2BDE8F08382
:1028F0004CE06E1A0F7807B94AE00F78012F01D12A
:10290000491C43E0022E00D242E00F78022F34D15E
:10291000042E02D34F78042F00D039E000BFCF78C7
:1029200091F8029047EA092000BF4C27BF5A87421E
:1029300003D000B92CE000BF00BF4C27BF5A87422C
:102940001AD9176C27F001077F1C17643BB14A277F
:10295000BF5A874203D900BF00BF4A27B8525F68F9
:10296000B7FBF0F747435F60A3F85E00A3F85C0095
:102970004C27B8524A27B8520AE04F78022F01DBA1
:10298000B74200D904E0394400BF00BFA942B0D328
:1029900000BF00BFAAE72DE9F0430246956905F1A3
:1029A00022031F7B07F0F007BE08976922373744E0
:1029B0000F60D769A7F10E002F7C4FEA07282F8AF6
:1029C00048EA27271FFA87FC604500DD604606F1CC
:1029D0001407B84201DDC01B00E000205F7B07F058
:1029E000200797B19F7C3F02B3F8128047EA28275F
:1029F000BCB20F6827440F6080462746B84501DC0B
:102A0000C14600E0B946A0EB0900BDE8F083000034
:102A100010B516E002F04EFF0C48C068C468201DD7
:102A200002F060FA0A480068401E09490860094837
:102A30000068401E0749086002F04EFF204600F083
:102A4000FBF8044800680028E4D110BDA80100206C
:102A5000340000203000002070B504460D46206C84
:102A600070B1216CE0680144E160D4E90210884251
:102A700001D32168E1602846226CE168FDF700FC83
:102A800070BD2DE9F04104460F4615464FF0000891
:102A9000A66B206C48B9206800282CD1A06804F0EF
:102AA0000DFB80460020A06025E07DB93946226CF0
:102AB0006068FDF7E5FB216C606808446060D4E95C
:102AC0000101884217D32068606014E03946226C07
:102AD000E068FDF7D5FB216CE068411AE1602168F0
:102AE000E068884203D2216CA068411AE160022D9F
:102AF00001D106B1761E701CA0634046BDE8F0818E
:102B00001FB5002001901C48006A002833D1112213
:102B100002210846FEF7D3FC174908620846006AFE
:102B2000401C28B30420009001AB0022086A114623
:102B3000FEF79CFB04201049009001AB0122086ABB
:102B40000021FEF793FB4FF48840ADF80A000A49D4
:102B500000230822086A02A902F0ACFF044654B11F
:102B60000549086A02F0EEFF00200349086202E00E
:102B70000020014908621FBD900201202DE9F047A5
:102B80000646884691461F46386800F1F10A00BFA4
:102B90004FF0FF315046FEF7D5F8051EF8D02C4611
:102BA000F1212046FDF793FB84F80080012060703E
:102BB0000620A0701D48007800061C49098801F411
:102BC0007F4140EA01201949096801F47F0140EA88
:102BD00011201649096840EA116060601448C4F881
:102BE000EC001248806910B18020608101E0002073
:102BF000608110480168E16180882084494605F1C0
:102C0000F0003A68FDF73CFB0A490A6805F1F50057
:102C1000C5F8F5208988A5F8F9104FF0FF307060ED
:102C20004FF4864070802846BDE8F087900201206E
:102C300063825363AC00002010B50446206B02F0A1
:102C40005BFE204602F058FE10BD2DE9F0418046A3
:102C50000C4615461E46012703F010FC08B9002754
:102C600011E0112D05D1022C00D00027502030603A
:102C700009E0062D06D1012C00D000274FF4A070EA
:102C8000306000E000273846BDE8F08101464A6A1E
:102C900022B10A6B1268C2F1050000E00020704703
:102CA0002DE9F04706464FF47C4A57464FF000089E
:102CB0000024A146062E01D1194D00E0194D00BF98
:102CC000FFF7CEFA8046B8F1000F06D1B9F1000F38
:102CD00002D14FF001091CE01DE01FFA88F04FF40B
:102CE0007C4190FBF1F201FB120000F5806084B2A0
:102CF000200240EA242081B2284601F0CFFF20B90B
:102D0000200240EA242084B205E00024781E87B225
:102D100000BF002FD4DC00BF2046BDE8F0870000D4
:102D20002C030120180301202DE9FF4F89B0044630
:102D30008B461E46DBF80000876907F1220504F187
:102D4000DC08687B089028790006A98801F47F4197
:102D500040EA0120696801F47F0140EA11206968B6
:102D600040EA11600790002006900590A87B0002C1
:102D7000E98940EA212081B2C4F8CC10089800F01B
:102D8000100080B32A20C05D0206788D00F47F40D9
:102D900042EA0022D7F82A0000F47F0042EA10221B
:102DA000D7F82A0042EA1061404601F0F9FF814657
:102DB000A06FC0B1B9F1000F15D0002000904B46B4
:102DC00000221146A06F02F051F960B1206840F076
:102DD0000200206094F8300000F0020018B1206872
:102DE00040F400702060A06F10B1204600F05FFF3B
:102DF000D8F82010C4F808114020005BC0F3403020
:102E000020B9089800F00100002839D00120059071
:102E10004020005BC0F38030F0B9404604F008F871
:102E20000490404604F00CF80390049808B103980D
:102E300020B900BF00BF002005900DE00B99079856
:102E40000144D8F81000081A02900298012803DD06
:102E500000BF00BF002005901C480068002801DD6D
:102E600000BF00BF059858B1206C20F4005000F559
:102E7000005020642046DBF8001000F0F1FF0690BF
:102E80000598F8B9102068730B9878B106F12800FE
:102E9000069014388006000E28734020005BC0F3B3
:102EA000803018B1D8F82410C8F8201056B932462E
:102EB0005946204601F028FA8246BAF1000F01DD9A
:102EC000CDF818A006980DB0BDE8F08FA80000203E
:102ED00010B50446204600F02DFC10BD2DE9F0474A
:102EE00005460F46BC690026638CD4F81A20A98CCD
:102EF000DFF808C1DCF8140001F048FF8146B9F1A1
:102F0000000F32D04020405DC0F3C00038B12E46E3
:102F1000286C20F00400001D28646D6525E0002663
:102F20004E20415B5020405B814205DB00BF00BF6B
:102F3000384601F08CFC18E0062201210220FEF741
:102F4000BEFA8046B8F1000F02D008F1010028B99E
:102F500000BF00BF384601F07AFC05E02946404634
:102F600001F0AAFC00B1464600BFB9F1000F41D004
:102F7000EEB394F822000002618C40EA2120B08771
:102F8000A07E0106608B00F47F4041EA0021D4F866
:102F90001A0000F47F0041EA1021D4F81A0041EA37
:102FA0001060B063C6F808912620005D0106E08C31
:102FB00000F47F4041EA0021D4F8260000F47F00AD
:102FC00041EA1021D4F8260041EA1061C6F8EC105D
:102FD000304600F0E1FD304600F022FF032130468C
:102FE00002F0DAFE422206F18200B96900E001E057
:102FF000FDF746F93046BDE8F0870000AC00002040
:103000002DE9FF5F04468A4690461F46DAF8000025
:1030100080690390039800F1220604F1DC05707BBF
:10302000029030790006B18801F47F4140EA012026
:10303000716801F47F0140EA1120716840EA11696A
:10304000002001904FF0100B5320005D022801D1A9
:103050004BF0020B029800F01700584511D000BF4A
:1030600000BF0821204602F097FE707B40F004006C
:10307000707307F12800019014388006000E307339
:1030800040E0A08FA5F85A00A08CA5F85800532066
:10309000005D02281AD104F18200009010210098EE
:1030A00080F82F104A20035B494604F1DC00D4F875
:1030B000082102F01DFF09F10100A8612861286ABA
:1030C000401C2862686B401C686304E0B8F1000F84
:1030D00001D1C5F81090E869401CE8625320005DFA
:1030E000022802D0B8F1000F08D01020707307F149
:1030F0002800019014388006000E30730521204608
:1031000002F04AFE019804B0BDE8F09F1FB500BF71
:1031100000BFFDF7D3FE64214A4800F0BCF801204F
:103120004949086000BF00BF00BFFFF789FBFFF7F8
:103130005BFB0646324602A94448006803F080FC67
:1031400010B9FF208DF808009DF90800401C58B107
:103150003E48006801F0E3FE05463D480068A8428D
:1031600001D93B48056000BF9DF908000C285ED2DC
:10317000DFE800F0060C103337474F5C132F3F4356
:1031800000203449086000F0EDFB51E00398FFF7A0
:103190009FFE4DE002F00CF84AE0039C00200190F5
:1031A00094F824000002A18C40EA212080B2ADF8FE
:1031B00002000020A084002308226946204602F075
:1031C00079FC206840F010002060204602F0BCFD31
:1031D0002EE0039802F0B6FC2AE0039802F0CCFB44
:1031E00026E01D480068012802D1002002F064F9A1
:1031F0001EE0039802F0DEFC1AE00398FDF78CFE57
:1032000016E01048006820F00200801C0D4908609C
:103210000EE0039C204603F06FFD30B1206840F0C3
:1032200004002060204602F08FFD01E000E000BFB6
:1032300000BF0A48006800283FF477AFFDF73EFE64
:1032400073E70000040301209800002080000020A4
:103250009C00002094000020CC000020880000206A
:1032600070B50446207800F0010008B9002510E090
:103270002078C0F3400028B904F10C01201D03F0B0
:1032800017FE28B12046216900F00EF8012500E064
:103290000025284670BD70B504460D4625612946B7
:1032A000204600F001F870BD70B504460D46201DA3
:1032B00002F080FFE5602DB9206820F00200801C3C
:1032C000206003E0206820F002002060206820F0E9
:1032D0000100401C206070BD00BFFFF799FB07484C
:1032E0000068012807D94FF0805005490860BFF3F6
:1032F0004F8FBFF36F8F02F092F8EEE708010020C6
:1033000004ED00E010B5FEF7ABFF0A49086008467F
:10331000006868B100208861486088604FF4FA70E6
:103320004861FFF7EDFB00BF00BF192002F0F0F984
:1033300010BD0000900201202DE9F04106460D4627
:1033400017469846069C0DB9246000E02760E663A6
:1033500025640121204603F08FFA0020A064BDE817
:10336000F0812DE9F05F81460E4690469A460A9F0D
:103370000C9C4FEA8801A522206BFCF7A1FFA8F165
:103380000100216B01EB800B2BF0070B86B10025B0
:1033900007E0715D04F134004155705D00B902E051
:1033A0006D1C102DF5D300BF00214320015502E014
:1033B000002084F83400052F00D30427E7626764F7
:1033C0000020A064201D02F0CCF904F1180002F0E6
:1033D000C8F92461C7F10500A06164620020E064BF
:1033E00084F8500084F8510052464946584601F08E
:1033F0006DFC20600B9808B10B980460BDE8F09F4D
:1034000010B5002407E004EB84010F4A02EB8100B1
:1034100002F09AF9641C052CF5D30C4802F094F9DB
:103420000B4802F091F90B4802F08EF90A4802F0BD
:103430008BF90A4802F088F90448094908600448F1
:103440000849086010BD0000080100206C01002040
:103450008001002094010020A8010020BC01002070
:10346000280000202C00002010B50146164800E07E
:10347000006803688B42FBD30246436813448B42C7
:1034800004D143684C682344436001460A464B68B4
:1034900013440468A34211D10C4C03682468A3426E
:1034A00008D04B680468646823444B6003681B6859
:1034B0000B6005E0054B1B680B6001E003680B60C7
:1034C000884200D0016010BD60000020680000202C
:1034D00070B5054602F0EEF9A86B08B9012400E0CA
:1034E000002402F0F9F9204670BD70B5054602F0DF
:1034F000E1F9A86BE96B884201D1012400E00024C6
:1035000002F0EAF9204670BD2DE9F3410D4600981E
:10351000846C0027A06BE16B88421BD294F9456054
:103520002A4669462046FFF7ACFA0746701C60B988
:10353000606A08B9012000E0002050B904F12400BD
:1035400003F062FE28B1012703E0701C40B284F84A
:10355000450000BF3846BDE8FC8100002DE9F04F72
:1035600089B0814608200590002003900220029037
:1035700005A806A9CDE900106A4901230022086ABE
:1035800008A9FDF753FD04900498002875DD089FF5
:103590000498F12872D3D7F8EC00634988426DD1C2
:1035A00038780228FBD15F48007800065D49098819
:1035B00001F47F4140EA01205A49096801F47F0182
:1035C00040EA11205749096840EA11607968884249
:1035D000E5D10622554907F11C00FCF783FE0028BF
:1035E000DDD1804607F1F0040498801E089900EBB5
:1035F000010A82E094F800B0BBF1FF0F00D17FE038
:10360000BBF1000F01D1641C77E0AAF10100A042D8
:1036100006D96578A41CAAEB0500A04201D86FE08A
:103620006EE0042D01D3266800E00026BBF1330FC5
:1036300043D009DCBBF1010F21D0BBF1030F23D034
:10364000BBF1060F53D124E0BBF1350F03D0BBF122
:10365000360F4CD120E0207809F0FF01884202D1DA
:1036600008F1010808E02078062805D1B9F1050F16
:1036700002D100202B4908773AE04FE04BE0042DBF
:1036800001D12B48466033E0042D01D128488660E3
:103690002EE02748C6602BE0042D0DD1B9F1020FB2
:1036A00004D108F101081F48866005E01D488068C4
:1036B000B04201D108F101081AE0042D16D13006FC
:1036C00006F47F4140EA012006F47F0140EA112020
:1036D00040EA16601349C8600846C0684008C860E0
:1036E0000846C068642148430E49C86000E000BF36
:1036F00000BF05B904E02C4400BF5445FFF47AAF85
:1037000000BFB8F1020F06D338690649486000BF10
:1037100000BF012003900898FDF7F5FB039809B05E
:10372000BDE8F08F9002012063825363AC0000205B
:10373000B402012070B504460026E0690E2820D3AB
:103740000126A569EEB1A88908280CD0B0F5C16F93
:1037500014D1E0692A2804D3A069FEF7DFFC0646ED
:1037600000E000260CE0E069222805D32146A0698C
:1037700000F058F8064600E0002601E0002600BFF1
:1037800000BF022E02D0032E06D104E00121204604
:1037900002F07AF904E003E0204602F04FF900BF9E
:1037A00000BF70BD30B5044604F1220104F10E03E0
:1037B00000200870D868186110484069D8604FF43C
:1037C0000062C2F1FF0000024FF6FF75AD1A40EA39
:1037D000152080B24D88A84208DC501C0502501C00
:1037E00045EA10204D882844488005E0100240EA50
:1037F00022204D8828444880022030BDAC000020A3
:1038000070B50446002594F8220030B1082805D18F
:103810002046FFF7C7FF054601E000E000BF00BFFC
:10382000284670BD2DE9FC5F80460C4608F10E0766
:1038300038780007860EE0690E38B04201D3142EA6
:1038400002D20020BDE8FC9F98F817A0324621461E
:103850004046FEF775FF8146B9F1010F7BD1142E6A
:103860001AD9A6F11405A0690E3000EB060BA06969
:1038700022300190E069401B223800905946DDE972
:103880000020FCF7FDFCE069401BE061387800F0A7
:10389000F000401D387000BFBAF1110F04D0F96874
:1038A00008F1060001F004FDBAF1010F06D0BAF1EB
:1038B000060F40D0BAF1110F4BD110E0E0692A2871
:1038C0000AD3A569386925494969884203D1284640
:1038D000FFF796FF814601E04FF000093AE0A56945
:1038E000E0692A2824D3E0692A38E0612620405D77
:1038F0000102E88C41EA202080B20838E169884260
:1039000008D22620405D0102E88C41EA202080B2E6
:103910000838E061688C2084D5F81A006061A98CB1
:10392000204602F025FF012804D14FF0030901E0F1
:103930004FF000090EE0204602F056FE012801D1AA
:103940004FF0030906480068401C0549086001E083
:1039500001E000BF00BF484674E70000AC00002053
:103960009000002010B51448006820F001001249B2
:10397000086012480068012801D101F04FFD0120C4
:103980000E490860FDF7D6F902F0E0FD012806D0E7
:103990004FF4967002F0DAFAFDF790FA0BE008485F
:1039A0000068012805D101F087FD042003F098F993
:1039B00001E001F09BFE10BDDC020120A000002010
:1039C000CC0000200A490968096809B9012100E012
:1039D000002121B14FF0FF31064A116006E0044991
:1039E0000968C968C868034A4168116070470000E7
:1039F000280000205400002010B586B0112003904C
:103A000003AB0D4A012104A8FFF7B8F8044600BF34
:103A100000BF082004A9CDE90010039901F1F102CB
:103A200006490123086A2146FDF7B4FB10B9204678
:103A3000FDF769FA06B010BDC673000890020120B8
:103A400010B586B01820039003AB114A012104A8D9
:103A5000FFF794F804460F494968C4F8FD100D4972
:103A60008968C4F8031100BF00BF082004A9CDE98C
:103A70000010039901F1F10206490123086A214669
:103A8000FDF788FB10B92046FDF73DFA06B010BDE2
:103A9000AE730008900201202DE9F05F04460F4646
:103AA0001D463868D0F8189009F1220B04F1DC06A5
:103AB000B1693069081A7168091AC4F8D010606FCA
:103AC00020B1606F01F0C8FA804601E0D4F86C8044
:103AD0004046D4F8D010FDF7A2FAC4F8D000616CCB
:103AE0003069A1EB000A95B10A480068012808DD99
:103AF000A08C502801D0012000E0002008B100BFB8
:103B000000BF00232A462046396800F00BFD2846F6
:103B1000BDE8F09FA8000020F0B502460B469C6966
:103B200004F1220102F1DC0595F83C005326B65C55
:103B3000052E1EDB4026B65C06F00106CEB1166CE3
:103B400026F0010717640B4E3668002E01DB00BF1C
:103B500000BF02260E7504274F754A26B65A371243
:103B60008F754A26B75CCF75042000F11406B600A5
:103B70000E73F0BDA800002070B502460B4603F19D
:103B800022014C25AC5A02250D7504264E752612CD
:103B90008E75CC75042070BD70B504464FF4C875A1
:103BA00094F838000006218F01F47F4140EA01209B
:103BB000A16B01F47F0140EA1120A16B40EA116082
:103BC0000A49496948400A494968084028B12946D4
:103BD0004FF4AF60FDF723FA054600BF00BFA9B25E
:103BE0004A2001534C20015370BD0000AC0000205E
:103BF000B40201202DE9FF4F87B0044692461E46CD
:103C0000DAF818000690069800F1220704F1DC00AB
:103C100005900020039038790006B98801F47F41AF
:103C200040EA0120796801F47F0140EA11207968B7
:103C300040EA116004908EB35320005D04282EDB0F
:103C4000606F70B1D4F87490D9F808000290D9F878
:103C5000000001904846DDE9012101F08EFA054699
:103C600000E0E56E2B463246DDE90410FEF749FB25
:103C70008046B8F1000F16DB334641462046089ACD
:103C8000FEF7F8FA8346B3450DD000BF00BF50469B
:103C900000F0DDFD4FF0FF30039004E0FFE700216E
:103CA000059880F83C1003980BB0BDE8F08F2DE923
:103CB000F0470546A86F01F04AFA8046B8F1000FB8
:103CC00020DDA86F03694268414605F1DC00FEF77C
:103CD00027FB0646002E15DD3746AC6F204601F067
:103CE00036FA81464F4500D94F46606838446060D7
:103CF00060682169884203D360682169401A606066
:103D000000BF00BFBDE8F0872DE9F04781460C46B3
:103D1000174698462048006838B140F2F2560CB970
:103D2000012000E00020824612E0422008F1360225
:103D3000D119884201DB024600E00A46164600BF60
:103D400014B1E069B04201D2012000E000208246B7
:103D5000BAF1000F17D00021304600F059FF054698
:103D6000B5B1EE6144B1D4E90612A869FCF788FA4E
:103D7000204601F063FE0BE0422209F18201A869AE
:103D8000FCF77EFA04E0254608F136003844E0618D
:103D90002846BDE8F0870000F87300082DE9F041DF
:103DA00004460F4687B1E66E606E20B90521E06ECD
:103DB000B0FBF1F16166A06E38B9E06E80000521BC
:103DC000B0FBF1F1A16600E0266F361D26F0030678
:103DD00006F11408404600F0A3FE054665B900BF91
:103DE00000BF206C20F4002000F500202064082192
:103DF000204601F0D1FF0DE014212846FCF767FAB8
:103E00002E610648006808B100BF00BF0FB16567AA
:103E100000E0A5672846BDE8F0810000A80000206A
:103E20007CB504460D48006808B100BF00BF4C20B7
:103E3000015BD4F80801CDE900014FF4C875D4F84E
:103E4000D80000FB05F2D4F8D40000FB05F104F122
:103E5000DC00D4F8EC3002F031F87CBDA800002082
:103E60002DE9F05F06460F46D7F8188008F12205C5
:103E700095F80D9006F1DC044FF0000A287A000650
:103E8000298901F47F4140EA0120A96801F47F01FA
:103E900040EA1120A96840EA116B09F0010010B155
:103EA0006069401C20614020805BC0F3803040B9D5
:103EB000216A6162306C20F4804000F580403064FB
:103EC00009E0606A401C584505D1306C20F4803010
:103ED00000F580303064306CC0F3004040B9616A56
:103EE0002162112068730A21304601F055FF17E066
:103EF000606A401C20624020805BC0F3C03010B973
:103F0000002068730CE0306CC0F3404010B9102002
:103F1000687301E0002068730821304601F03CFF1F
:103F2000206AE062687B18B194F83C0000F1280A2E
:103F300094F83C0014308006000E28730348006893
:103F400008B100BF00BF5046BDE8F09FA8000020A8
:103F50002DE9FE4F04460F463868806902900298AA
:103F600000F122064FF0000A30790006B18801F412
:103F70007F4140EA0120716801F47F0140EA11208D
:103F8000716840EA1169D346707B009004F1DC054A
:103F900001A93868FEF7FFFC80465320005D052824
:103FA0000ADB09F101002969814205D1206C20F466
:103FB000807000F58070206409EB0801A869081A78
:103FC000002802DD09EB0801A96143463A68204652
:103FD0000199FFF70FFE002802DA4FF0FF3A77E071
:103FE00020463968FFF798FD83465320005D04287A
:103FF0000AD1009800F01F00022805D100BF00BFC1
:104000000321204601F0C8FE009800F00100C0B175
:104010004020005BC0F3C03098B909EB080169612A
:10402000206C20F4004000F5004020644020005B3C
:10403000C0F3803028B9206C20F4003000F5003047
:1040400020645320005D0C2840D2DFE800F0060712
:104050002308242C35363C3D343E38E037E02046FA
:104060000299FFF789FD8346122070730BF1280A2D
:104070000BF114008006000E30730421204601F07D
:104080008BFE09F10100A8612861E869401C6863A2
:1040900028621CE000BF5B46424639462046FEF7D8
:1040A000AFFF824613E05B46424639462046FEF7A4
:1040B0003BFE82460BE000BF00BF20463968FFF799
:1040C000CFFE824603E002E001E000E000BF00BF57
:1040D000BAF1000F06DD5346424639462046FFF747
:1040E000DBFC82465046BDE8FE8F38B5044644F6F8
:1040F000206000905320005D02282ED14020005BFC
:10410000C0F3C02078B15220005D032807D25220AE
:10411000005D401E40F6B8318140009106E042F655
:10412000F820009002E04FF4FA70009000BF00BF4A
:104130006421009848434FF47A71B0FBF1F008B95C
:10414000012006E06421009848434FF47A71B0FBE7
:10415000F1F081B24820015328E04820005B28BBE1
:104160006A4604F1DC00D4F8CC1002F070FE05467B
:10417000009830B915B10120009002E044F62060AB
:1041800000906421009848434FF47A71B0FBF1F03D
:1041900008B9012006E06421009848434FF47A7181
:1041A000B0FBF1F081B24820015300BF4820005B12
:1041B00038BD00002DE9FE43044601274FF00008FA
:1041C00094F838000006218F01F47F4140EA012075
:1041D000A16B01F47F0140EA1120A16B40EA11605C
:1041E0000290694602A8FDF757FF8146B9F1000F1A
:1041F00008D0B9F1010F03D0B9F1020F01D102E0EB
:104200000EE000BF00BF5220005D401CC1B2522032
:10421000015500BF00BF0298FCF764FE002700BFF5
:1042200000BF6FB1A38FA18CDFF8D8C0A26BDCF800
:10423000140000F0ABFD8046B8F1000F00D100275C
:10424000002F5BD004F1820505F10E0600215220FB
:104250000155206C20F4006000F5006020644221CC
:104260002846FCF734F80098C5F80600BDF80400AD
:1042700068810820A881452030704FF4505070802C
:1042800080203072062070721E484069306194F8B8
:1042900038000006218F01F47F4140EA0120A16B24
:1042A00001F47F0140EA1120A16B40EA1160F06047
:1042B0003C20005D0102A08F41EA2020688494F830
:1042C00024000002A18C40EA212081B205F12200E5
:1042D000A9840021C4F8EC10C4F8088150212E20D4
:1042E000415502212F2041552046FFF755FC4C2017
:1042F000015BC4F8D0102046FFF792FD3846BDE8B8
:10430000FE830000AC0000202DE9F04F87B004468A
:1043100089469246D9F8000018B1D9F8000087699B
:1043200001E004F182073D4604F1DC08002600208C
:1043300002902F20405D40F010012F204155A06FCA
:10434000002859D04A20005B012806D902AA40461D
:10435000D4F8CC1000F050FD0646002E4CDD53463C
:1043600032462046D9F80010FFF7CEFC8346BBF159
:10437000000F3FD0C9F800B0DBF818703D4607F1D8
:10438000360050440690A26F11681046029A00F061
:104390004EFE0590012000903346A06FDDE9051226
:1043A00000F064FE04904020005DC0F3801000B374
:1043B0004020005BC0F38030D8B9A16F8A680846FE
:1043C000029900F034FE0390DDE90301884213D125
:1043D0002F20405D40F001012F204155D8F82C00DE
:1043E0008119C8F82410206C20F4804000F580402A
:1043F000206401E04FF0FF36002E65DB5320005DA6
:10440000052861D14020005DC0F3401008B340464C
:1044100002F016FDE8B1206C20F0200121642F206D
:10442000405D40F001012F204155206C20F4804078
:1044300000F580402064206C20F4807000F58070CE
:104440002064D8F82010C8F824100621204601F076
:10445000A3FC94F85800032807D900BF00BF082127
:10446000204601F099FC4FF0FF366EBB4020005B08
:10447000C0F3002040BB02F08DFDE16D401A0190B9
:104480004FF4FA60009094F8580010B14FF4967011
:104490000090DDE90010884215D902F07BFDE0654F
:1044A0001F48006808B100BF00BF206C20F40070F6
:1044B00000F500702064FA214820015394F8580058
:1044C000401C84F8580000BF002E09DC4020005B2F
:1044D000C0F3002020B94020005BC0F34020D0B1E1
:1044E0002F20405D00F0F7012F2041550AF1140004
:1044F0008006010E2E2041552F20405D40F0100116
:104500002F20415526B1405D40F008012F20415534
:104510000AF128000644304607B0BDE8F08F0000DD
:10452000A80000202DE9FF4F8DB00546894693462F
:10453000B9F1000F08D10DF1040905F182000790CF
:104540004220089000201090B9F1000F71D0D9F8E6
:10455000184004F10E06A046002D6BD005F1DC07D3
:10456000686F20B1686F00F077FD0C9001E0E86E95
:104570000C907968D5F8D000FCF751FD82464020B8
:10458000405DC0F3C01018B9286CC0F3804008B17A
:104590004FF0000A4A20405B504507D94A20415B52
:1045A0000C98814202D84A2030F805A0CDF828A006
:1045B0004FF6FC70DDF828A0824500D90A900A98D1
:1045C000C0F3072141EA002081B204F122002186D4
:1045D000286C20F480712964386900EB0A01696451
:1045E0004020405BC0F3402028B3286C20F40071C9
:1045F0002964286C20F4806000F580602864D5F878
:104600000801401EC4F826002620005D0106E08C4B
:1046100000F47F4041EA0021D4F8260000F47F0036
:1046200041EA1021D4F8260041EA1061C4F82610AE
:104630002BE09FE03BE095F808010106B5F8080182
:1046400000F47F4041EA0021D5F8080100F47F0022
:1046500041EA1021D5F8080141EA1061C4F826109A
:104660002F20005D00F0010078B1ABF12800F96A5D
:104670000A18796A8A4207D02F21095D01F0FE02EB
:104680002F210A5500BF00BF00BF387C0106388AC1
:1046900000F47F4041EA0021386900F47F0041EADC
:1046A0001021386941EA1061C4F82A1009E000BFFE
:1046B000D4F82600D4F82A20C4F82620C4F82A000A
:1046C00000BF802030724FEA0B2040EA1B20708030
:1046D00015B12A48406910B930690B9002E02748AB
:1046E00040690B90F06830610B98F06000BF608CFF
:1046F000A18C618404F12201A08400BF20480078CD
:1047000000021F49098840EA2120B0801C48008827
:10471000401C1B4908800020F0800BF10E00C9F8F6
:104720001C00D8F80600C8F80000B8F80A00A8F87D
:10473000040012480168C8F806108088A8F80A002A
:104740004846109901F004FF109898B900BF608C9A
:10475000A18C618404F12201A08400BFD4F81E1052
:10476000C4F81A10D8F80000C8F80600B8F8040019
:10477000A8F80A0011B0BDE8F08F0000AC000020DE
:1047800084000020F8B5044600275320005D02286D
:104790000CD0002000906946204600F039F807460A
:1047A000009898B3009801F049F92FE05220005D7D
:1047B000032806D300BF00BF0821204601F0ECFA11
:1047C00024E04020005BC0F3C02020B92046FFF762
:1047D000F1FC01281AD104F1820631462046FFF788
:1047E000CBF9054605F1280705F114008006010EF6
:1047F0002E2081555220005D401CC1B2522001552F
:1048000000233A4619462046FFF78CFE3846F8BD8D
:104810002DE9F04780460D460027B946002610E0F6
:104820004A4629464046FFF76FFD0446002C00DC4F
:1048300009E00023224640462968FFF773FE27441B
:10484000761C082EECD300BF3846BDE8F08770B563
:104850000446A569282614212F20415550212E20D9
:1048600041550023282221461846FFF75BFE002011
:1048700070BD000070B502460E4B948C596814E070
:10488000C86853252D5C012D0ED1858CA5420BD116
:104890004E252D5A45B14E252D5A6D1EAEB24E25D0
:1048A0002E5200BF00BF02E049689942E8D100BF24
:1048B00070BD0000340301207CB505460C46E0695C
:1048C000E861206A286294F8260085F82600E16EE7
:1048D000E966216F2967616E6966A16EA966D4F8E1
:1048E000D410C5F8D410D4F8D810C5F8D810A06AE0
:1048F000A862E06A28B1E06AE862206B40F0050037
:10490000286315484069019094F824000002A18CA6
:1049100040EA212080B2ADF80200286C20F00400AB
:10492000001D28646C654E20005B401C81B24E2047
:10493000015300BF00BF012308226946284601F049
:10494000B9F830B100BF00BF284601F0FBF80020E5
:104950007CBD0120FCE70000AC00002001460829D6
:104960000AD003DC39B107290BD106E0092905D0AB
:104970000B2906D103E000BF00BF00BF00BF00202D
:1049800070470120FCE770B504465320005D40B13C
:10499000012807D0052802D0082806D103E0002509
:1049A00005E000BF00BF002501E0012500BF00BFFA
:1049B000DDB102F0EFFA216E461A40F6B8308642B9
:1049C00012D90821204601F0E7F94020005DC0F32C
:1049D000800048B14020005DC0F3C00010B92046FF
:1049E00001F0B0F84FF0FF3500BF284670BD10B59C
:1049F000044602F0CFFA2066206C20F48061216426
:104A0000206C20F400712164002184F8581002F019
:104A1000C1FAE06510BD0246B2F85E308B4201D8A3
:104A2000012000E00020704700BF502080F3118873
:104A3000BFF34F8FBFF36F8F00BF00BFFEE710B50E
:104A40000346002022B903EA010434B1012004E046
:104A500003EA01048C4200D1012010BD70B5044668
:104A600000F028FF94F945501AE0A06C38B10021FD
:104A70002046FEF749FD88B101F08EFA0EE0606A2B
:104A800008B9012000E0002038B904F1240002F048
:104A9000BBFB18B101F080FA00E003E0681E45B2EC
:104AA000002DE2DC00BFFF2084F8450000F014FF79
:104AB00000F000FF94F9445010E0206908B901208B
:104AC00000E0002048B904F1100002F09DFB08B19D
:104AD00001F062FA681E45B200E001E0002DECDC56
:104AE00000BFFF2084F8440000F0F6FE70BD30B532
:104AF000034601200BB15C1C0CB900200EE03AB15A
:104B00009C690CB1012400E000240CB9002005E0F0
:104B100093F82740CDB2AC4200D0002030BD000059
:104B20002DE9F04105464FF0000801F087FB2B48C6
:104B300000682840002847D145B1083505F0070036
:104B400020B105F00700C0F108000544002D3BD05E
:104B500023480068854237D8224E3046046801E079
:104B6000264624686068A84202D220680028F7D14F
:104B70001D480068844227D0306800F1080820688A
:104B800030606068401B102807D967196068401BB7
:104B9000786065603846FEF767FC1149606809680F
:104BA000081A0F49086008460068104909688842D9
:104BB00003D20B4800680D4908600849606809681D
:104BC000084360600020206002F05EFBB8F1000F37
:104BD00001D100F029FC4046BDE8F08174000020BE
:104BE0006C000020600000206800002070000020A1
:104BF0000648006830B10549096801F14800896C30
:104C0000491C016001480068704700002400002032
:104C10002DE9F04104460F46002514B1422C00D284
:104C20004224A41C04F0030010B144F00300441C0F
:104C300039461748006801F085FF012824D100F0AB
:104C400039FE1448C068C568284600F04BF900F0EA
:104C500043FE1048066810480068B04201D90E486B
:104C600006608CB104F10A00FFF75AFFA861A86939
:104C700020B9284600F0E2FE002505E0A86905609D
:104C8000A8690A30A861EC612846BDE8F0810000FF
:104C9000C800002040030120C400002070B5044675
:104CA0000D46002601F0EAFB70B16CB104F1080179
:104CB000486805E00268AA4201D1064602E0406861
:104CC0008842F7D100BF00BF304670BD001F4FF0D3
:104CD00080730360001F21F001030360001F054B78
:104CE000036014380260001F6FF002030360203875
:104CF00070470000294A00082DE9F04384460C461D
:104D000000260027124D69681AE0C868B0F82480B0
:104D10001FFA84F9C84512D190F85380B8F1010FF9
:104D200001D107460BE0B0F83C801FFA83F9C84573
:104D300005D1D0F83880904501D1064602E0496897
:104D4000A942E2D100BF06B93E463046BDE8F08335
:104D500034030120014609B9002007E00A46343A2D
:104D600002F003030BB9106800E000207047000058
:104D700070B50446002621460348FFF78FFF05461D
:104D800005B1EE68304670BD180301202DE9F041F1
:104D900004460D4616461F46FDF762FABDE8F0814F
:104DA00030B5024602F14003986808B3146A04441F
:104DB0008C420BD9B2F85840502C01D0012400E0AD
:104DC00000240CB100BF00BF002011E0146A2518B8
:104DD0001562084C24684CB1B2F85840502C01D0F0
:104DE000012400E000240CB100BF00BF00249C603F
:104DF00030BD0000A80000202DE9F0470546894697
:104E0000174605F14004A6682EB36069C0F3004060
:104E100060B1217D01208840A96B00FB01F804F1FD
:104E2000100000F055F8404500D200269EB16069A0
:104E300020F4803000F580306061207D401C616985
:104E400060F30701616104F1100001F030F820689F
:104E5000E862E06838603046BDE8F08770B5064625
:104E60000D4600F027FD18480068C06C88B9012085
:104E70001549096881F850005DB101212846FDF708
:104E8000B3FB4FF0805011490860BFF34F8FBFF361
:104E90006F8F00F021FD00F00DFD0B480068C46C21
:104EA0004CB126B1002008490968C86403E0601EBF
:104EB00005490968C86400200349096881F8500061
:104EC00000F00AFD204670BD2400002004ED00E043
:104ED00010B5044602F05EF82168401A00EB80002D
:104EE000400010BD01460A69D1E901309860D1E95E
:104EF000010358605068884201D1886850600020E2
:104F000008611068401E10601068704770B5044654
:104F100000F0D0FCA56B00F0DFFC284670BD70B53A
:104F20000446254600F0C6FCD5E90E10461A00F0EE
:104F3000D3FC304670BD2DE9F05F04460F46924623
:104F40001E4600BFA16822680B469446D4F810B0F4
:104F5000E344ABEB030BABF10100D4F810B0834595
:104F600003D8D4F810B0A0EB0B0000BF00BF804600
:104F7000B84502D9A8EB070801E04FF00008314618
:104F80004046FCF745F80646002E4DD0A5682FB1E7
:104F90003D442069A84201D820692D1ABAF1000FBA
:104FA00016D02169481B3146FCF732F8814604F1DE
:104FB000140148194A465146FBF762F94E4507D994
:104FC000A6EB09020AEB090104F11400FBF758F9FA
:104FD00037B935442069A84201D820692D1AA56047
:104FE000E268294623689A4202D24FF0010C01E0A0
:104FF0004FF0000C994202D24FF0010B01E04FF04C
:10500000000B8CEA0B0CBCF1000F05D0994201D2C9
:10501000012006E0002004E08A4201D8012000E0DF
:10502000002000BF00B1E5603046BDE8F09F10B53C
:1050300003461C691444601A1C69844201D81C6927
:10504000001B10BD70B50446E56826683246294647
:10505000204600F086F870BD70B50446E568266805
:1050600032462946204600F088F870BD2DE9F05FF1
:1050700004460F4692469B4600BFA168226813462D
:105080008C46D4F810E0E644AEEB0300D4F810E010
:10509000864503D8D4F810E0A0EB0E0000BF00BF97
:1050A0008046B84502D9A8EB070801E04FF0000898
:1050B00059464046FBF7ACFF06465EB325682FB164
:1050C0003D442069A84201D820692D1ABAF1000F89
:1050D00016D02169481B3146FBF79AFF814604F13F
:1050E000140041194A465046FBF7CAF84E4507D905
:1050F000A6EB09020AEB090004F11401FBF7C0F862
:105100000A9838B937B935442069A84201D82069CE
:105110002D1A25603046BDE8F09F70B501468A68BB
:105120000B681C4615460E692E44301B0E698642DC
:1051300001D80E69801B00BF70BD70B50446A5681C
:10514000266832462946204600F00BF870BD70B53F
:105150000446A56866682A4631462046FFF767FF81
:1051600070BD10B503461C691444641A601E1C69A6
:10517000844201D81C69001B10BD10B503461C6990
:105180001444641A601E1C69844201D81C69001B07
:1051900010BD000005490968886904490968C96AA1
:1051A000C1F10501014A1268916170472400002095
:1051B00070B500243DE004EB4400284901EB800079
:1051C000807AA8B304EB440001EB8000807A401E93
:1051D00004EB4401214A02EB8101887204EB440094
:1051E000114601EB8000C07A30B904EB440152F85B
:1051F0002100FBF777FE0EE004EB4400174901EBBA
:105200008000807A032806DC04EB4401134A52F83C
:105210002100FBF767FE04EB4400104901EB80001E
:10522000807A28B9002004EB44010C4A42F821009E
:10523000641C102CBFDB01F0ADFE05460848006879
:1052400028B107480068281AB0F5FA6F05D9054952
:105250004869FBF747FE0248056070BDD001012098
:105260007C000020AC00002070B50546AC69262209
:105270000D492046FBF704F80C480168C4F80610F5
:105280008088608104F10E0008490A68C4F816207D
:105290008988618305494969E1616969C4F8261013
:1052A0002A20E86170BD000088730008AC0000206F
:1052B0002DE9F047054688460024671E4FF0FF3968
:1052C0000026A2464D4840694D49496808404C496E
:1052D000496801EA0801884203D04848406900282B
:1052E0007AD1AAF1010000F0FF0A002443E004EBA8
:1052F0004400444951F8200040451ED10DB92746CD
:105300003BE004EB44013F4A02EB8101081D062209
:105310002946FAF7E7FF70B9B42004EB4401394A93
:1053200002EB81018872012004EB440102EB810150
:10533000C872BDE8F08727461CE065B104EB440164
:10534000304A02EB8101081D06222946FAF7CAFFFE
:1053500008B9A1460EE004EB44002A4901EB8000A5
:10536000807A504506DA04EB440001EB800090F8A7
:105370000AA02646641C102CB9DB00BFB9F1000F4F
:105380000CDB4E46002F0CDB07EB47001D4901EB01
:105390008000002101604160816002E0002F00DB9D
:1053A0003E4606EB4600174941F82080ADB106EBBA
:1053B000460001EB800029684160A9880181B42082
:1053C00006EB46010F4A02EB81018872012006EBD1
:1053D000460102EB8101C8720EE0002F0CDA0820B2
:1053E00006EB4601074A02EB81018872002006EBBA
:1053F000460102EB8101C87200BF9AE7AC000020B1
:10540000B4020120D001012010B50020024908603B
:10541000022001F065FC10BD7C000020704710B533
:10542000FCF7D0FF10BD000000F044FA12A0FCF71A
:1054300099FD012080F3138800BF00BF00BF00BFAB
:1054400000BF00BFBFF34F8F00BF00BF00BF0F48BA
:10545000006800F4E0600E490843001D0B49086035
:1054600000BF00BF00BFBFF34F8F00BF00BF00BF32
:1054700000E000BFFDE700004F53C4DAB4E6B6D148
:10548000B2BBB9BBB7D6C5E40D0A00000CED00E015
:105490000000FA0570B505460C46214601A0FCF750
:1054A00061FD70BD22257322C8CECEF1B6D1D5BB29
:1054B000D2E7B3F60D0A000070B50446002514B11A
:1054C00000207B4908777A48007F05287DD2DFE8F5
:1054D00000F0031A5EB7CC00FDF714FF7448006AB1
:1054E00008B90125C6E00020724948617048006A89
:1054F00040B101F04FFD6E490861FEF77DFA0120D1
:105500006B490877B6E000250220FEF727F801284E
:105510000CD101F03FFD664908614FF4FA70486113
:10552000FEF78EFA022062490877A3E001F032FD0F
:105530005F490969401A5E494969884226D95C4831
:10554000406940005A4948610846406942F6E061B6
:10555000884218D8FCF784FE554908600846006860
:1055600078B101F017FD524908610846806908B911
:10557000012000E000204E498861FEF73DFA00BF9F
:1055800004E000BF02E000BF00BF012572E005207B
:10559000FDF7E4FF012834D100BF00BF4448406854
:1055A0004449486142484068434949680840424983
:1055B000496860EA01004049086103203C490877D6
:1055C00000F094F83A49086A00E052E000F0BAFAB4
:1055D0000020374908620846C06810B93748C860DB
:1055E00008E03348C06841F27071884202D2084630
:1055F0002F49C860FFF708FF2D49C86800F088F8F8
:105600001DE001F0C7FC2A490969401A2849496987
:10561000884214D926484069400025494861084617
:10562000406942F6E061884206D801F0B3FC2049A7
:105630000861FEF705FA02E000201D49087719E02D
:10564000FDF75EFA1A48006A70B101F0A3FC184930
:1056500008614FF4FA704861FEF7F2F9022014492C
:105660000877192000F054F804E0002000F05AF800
:1056700000E000BF00BFCDB100F01CF90E4800688B
:105680000C49486100F028F90420094908770020F6
:1056900000F048F800F02AF80548006A30B10449E3
:1056A000086A00F04FFA00200149086270BD00004E
:1056B00090020120AC000020B402012000AC0701E0
:1056C00070B5044625462E1D00F0B8FD04E04FF0ED
:1056D0000071F06800F03CFD30680028F7D12846E2
:1056E00000F00AF901F0D0FD70BD000010B50120F6
:1056F000054908600020FFF791FE4FF47A710348D6
:10570000FDF7C9FD10BD000094000020DC0201205F
:1057100010B5044621460248FDF7BDFD10BD00004E
:10572000F002012038B10749096821F00101491C44
:10573000044A116005E00349096821F00101014AAA
:1057400011607047F002012000F1080141604FF044
:10575000FF31816000F10801C16001610021016039
:10576000704700210161704710B502460B685C1C50
:105770000CB9106907E002F1080000E040684468D5
:1057800024689C42FAD944684C604C68A1608860E7
:1057900041600A611468641C146010BD42684A606C
:1057A00093688B60936859609160086103685B1C23
:1057B0000360704710B50448FFF7C6FF0348FFF7C2
:1057C000C3FF012010BD0000180301202C0301209D
:1057D0002DE9F043054600220026002305EBC30413
:1057E00048E0D4F804C0206800F00708B8F1000FC2
:1057F00008D0C01D20F00700D4F80080A0EB0808F6
:10580000ACEB080C01464BB9DFF89480C8F80010E7
:105810004FF00008DFF88890C9F80480DFF8848032
:10582000D8F8007001EB0C00083820F00700C8F829
:1058300000004FF00008DFF86C90D9F80090C9F82C
:105840000480DFF86090D9F80090C9F800800A461B
:10585000A0EB0208C2F80480DFF84880D8F8008086
:10586000C2F8008007B13A60D2F8048046445B1C5D
:1058700005EBC304D4F80480B8F1000FB1D1DFF810
:105880002880C8F80060DFF82480C8F800604FF076
:105890000048DFF81C90C9F80080BDE8F0830000E4
:1058A0006000002068000020700000206C000020D4
:1058B0007400002000BF502080F31188BFF34F8F89
:1058C000BFF36F8F00BF03480068401C01490860A8
:1058D000704700007800002006480068401E054917
:1058E00008600846006820B9002080F3118800BFD6
:1058F00000BF70477800002070B506463546D6B127
:10590000083D2C460C4960680968084098B1206839
:1059100088B90949606809688843606000F08EFCB6
:105920000649606809680844044908602046FDF794
:105930009BFD01F0A9FC70BD740000206C000020EC
:1059400010B56FF00400FCF7E5F80A480068C408D9
:105950006420B4FBF0F44FF0E020006940F0020056
:105960004FF0E021086108464461006940F0010001
:10597000086110BD000000202DE9F843044660696D
:105980000090A66931466846FCF786FB0746022F61
:1059900036D0012F28D106F10E0506F12200218C08
:1059A0004180618C0180A18B0831818001790902DD
:1059B000828841EA222181800021C18006F1060807
:1059C000182215494046FAF75BFCA08B1C30688012
:1059D00068880E30E061A8780002698840EA2120DA
:1059E0006880606928610BE04FB900200099FFF7DB
:1059F0005FFC009860612046FFF736FC00E002275C
:105A0000022F04D00121204600F0A2FD02E0204632
:105A100000F014F8BDE8F883AC00002070B504462F
:105A200025462846FFF768FF70BD10B504461CB137
:105A30000A3C2046FFF760FF10BD000070B5044629
:105A4000A069FFF7F2FF0020A061FFF733FF0C49C8
:105A50002069884201D1012000E0002005461DB9DF
:105A600021460748FFF79AFEFFF736FF35B90023B6
:105A70001A4619460348006800F03EFF70BD00005A
:105A800040030120C800002070B505460E46AC69F1
:105A9000D4F8060020606089A08005480168C4F839
:105AA0000610808860813146284600F051FD70BDA7
:105AB000AC0000202DE9FC4705460C4691461F46E8
:105AC0004FF0000895F82700062801D11B4E00E092
:105AD0001B4E14B96C46002060804CB3608850B9EE
